:100000000C9473010C94AB010C94AB010C94AB01F8
:100010000C94AB010C94AB010C94AB010C94AB01B0
:100020000C94AB010C94AB010C94251F0C94F91F9C
:100030000C9468190C94AB010C94AB010C94AB01BB
:100040000C94AB010C94AB010C94AB010C94AB0180
:100050000C94AB010C94EE190C94AB010C94AB0115
:100060000C94AB010C94AB010C94AB010C94AB0160
:100070000C94AB010C94AB010C94AB010C94AB0150
:100080000C94AB010C94AB010C94AB010C94AB0140
:100090000C94AB010C94AB010C94AB010C94AB0130
:1000A0000C94AB010C94AB010C94AB010400160052
:1000B0001D001B0000000000000000002A2B28008B
:1000C0000000000000000000000000000000002907
:1000D000000000002C1E3420212224342627252E47
:1000E000362D3738271E1F2021222324252633337F
:1000F000362E37381F0405060708090A0B0C0D0EAB
:100100000F101112131415161718191A1B1C1D2F76
:100110003130232D350405060708090A0B0C0D0E96
:100120000F101112131415161718191A1B1C1D2F56
:100130003130354C000000000000000000000000DD
:1001400000000000000000000000000000000000AF
:1001500000000000000000007E0F00D4FFFFFFC77A
:10016000000000781A0363006800610072006C00F0
:10017000650073005F0034006B00650079000000CB
:10018000160363006800610072006C006500730074
:100190005F006900700000000403090409025B00AD
:1001A000030100A0FA090400000103010100092174
:1001B0001101000122400007058103080001090424
:1001C00001000203000000092111010001222200A8
:1001D000070582032000010705030320000109042D
:1001E00002000103000000092111010001227B002F
:1001F000070584032000011201000200000008ED41
:10020000FE00000100010200010660FF0961A1017A
:100210000962150026FF0095207508810209631503
:100220000026FF00952075089102C005010902A172
:100230000185020901A100050919012908150025F8
:1002400001950875018102050109300931158125E3
:100250007F95027508810609381581257F950175FE
:10026000088106050C0A38021581257F950175085D
:100270008106C0C005010980A101850319012AB7C3
:1002800000150126B700950175108100C0050C0905
:1002900001A101850419012AA002150126A00295D9
:1002A0000175108100C005010906A101050719E0CB
:1002B00029E715002501950875018102950175084A
:1002C00081010507190029FF150026FF0095067515
:1002D0000881000508190129059505750191029508
:1002E0000175039101C011241FBECFEFDAE0DEBF1C
:1002F000CDBF04B603FE18C080912C0290912D0250
:10030000A0912E02B0912F028730904BA740B04BA6
:1003100059F410922C0210922D0210922E0210927B
:100320002F02E0E0F8E3099511E0A0E0B1E0E4EB92
:10033000F4E402C005900D92AC38B107D9F722E081
:10034000ACE8B1E001C01D92AC32B207E1F70E9407
:1003500000110C942F220C94000081E0089581E09C
:1003600008950C94AF0108950C94B3011F93CF939B
:10037000DF9300D000D00F92CDB7DEB749835A8308
:100380006B8330918F0189819A8131111DC0662361
:10039000B9F02223A9F00E943408182F682F898110
:1003A0009A810E94E30769817A81812F0F900F90D3
:1003B0000F900F900F90DF91CF911F910C94CF165B
:1003C0000E940E08182FEFCF0E94340869817A81AD
:1003D000EDCFFC01262F40815181628173818481A0
:1003E0000C94B60181E00895CF93DF93EC0160E0B7
:1003F0000E94E901BE01DF91CF910C94B401E1E0CC
:10040000F0E0DF0102C0AA0FBB1F6A95E2F7BD0151
:10041000DF0102C0AA0FBB1F4A95E2F76A2B01C099
:10042000EE0F2A95EAF7962F9823961302C08E2B8B
:100430000895E0958E230895242F462F682F8091EC
:1004400093010E94FF010C94A0070C94EE0F0C94F2
:10045000F10F08950E943C070E9429022FEF84E3C8
:100460009CE0215080409040E1F700C000000C94D7
:10047000121A0F931F93CF93DF938C0161E00E94B8
:10048000E901EC01B8010E94EE138823D9F1B8010B
:10049000CE010E94B1018823A9F1B801CE010E94CA
:1004A0003018882379F1B801CE010E94D214882334
:1004B00049F1B801CE010E949A17882319F1F80179
:1004C0008281882361F0CA35FDE5DF0721F170F4F0
:1004D000C115ECE5DE07A1F0CE3DDC45C9F0C80151
:1004E000DF91CF911F910F910C94AD01CB358DE52C
:1004F000D807A1F0CC35DD4591F70E94540CEFCF21
:100500000E942A0280E0DF91CF911F910F91089500
:100510000E940D0DF7CF0E945D0CE1CF0E94600C90
:10052000DECF0E944C190C947A030E947D030C9438
:100530005019DF92EF92FF920F931F93CF93DF93A7
:10054000E82FF0E0EC54FF4FD490282F2695269505
:10055000269530E0F901EC5AFE4F0491877010E0C7
:10056000082E02C0159507950A94E2F7017011272D
:10057000F901EC5BFE4FE490F12C082E02C0F594DB
:10058000E7940A94E2F791E0E922FF24F901EC5C98
:10059000FE4FC491D0E002C0D595C7958A95E2F789
:1005A000C170DD270115110519F081EE0E94CF03FE
:1005B000E114F10419F086EE0E94CF038D2D0E9404
:1005C000CE04EF2819F086EE0E946104012B19F089
:1005D00081EE0E946104CD2B51F08CE2DF91CF912E
:1005E0001F910F91FF90EF90DF900C94CE04DF915C
:1005F000CF911F910F91FF90EF90DF900895EF92B0
:10060000FF920F931F93CF93DF93EC01162F0AE015
:100610008881882309F454C0813009F04EC0898153
:10062000813099F47E0122E0E20EF11C8A810E9461
:10063000CE04E7012196812F815050F3EFE9FFE0CE
:100640003197F1F700C00000F7CF823041F47E010E
:1006500082E0E80EF11C8A810E94CF03EACF83304A
:1006600041F47E01E2E0EE0EF11C8A810E946104F9
:10067000E0CF843011F02196DDCF2A81229690E0E0
:1006800080E0AE014F5F5F4F2053330B2A303105BE
:1006900048F0019778F2EFE9FFE03197F1F700C0F9
:1006A0000000F7CF089FB001099F700D1124C90108
:1006B000860F971F2981EA01E4CF0E949902BACFE1
:1006C000DF91CF911F910F91FF90EF90089560E01F
:1006D0000C94FF0208950C946A0381E008950C9431
:1006E0006D030895CF93C82F0E946B038C2FCF9179
:1006F0000C946F0380E00C9472030E948C180C948D
:1007000072030E948C1890918E01981721F08093AB
:100710008E010C9472030895CF93DF93CDB7DEB7AB
:100720002B970FB6F894DEBF0FBECDBF4F8358870F
:1007300069877A878B8761110E94A20B1E821D82B6
:1007400085E0FE013796DE01119601900D928A95A3
:10075000E1F78C819D81892B89F449815A816B81D4
:100760007C818D819E810E94C30A2B960FB6F894DE
:10077000DEBF0FBECDBFDF91CF91089589819A81F1
:1007800089238F3F51F3CE0101960E94F20181111E
:10079000E4CFEBCFFC01808191810C946108CF9371
:1007A000C82F882309F48BC08238C1F40E948C18AA
:1007B00081FD85C089E30E945D0B0E94C20B2FEF73
:1007C00081EE94E0215080409040E1F700C00000AD
:1007D00089E30E94640BCF910C94C20B8338A1F47F
:1007E0000E948C1880FD6BC083E50E945D0B0E9407
:1007F000C20B2FEF81EE94E0215080409040E1F752
:1008000000C0000083E5E5CF8438A1F40E948C1875
:1008100082FD55C087E40E945D0B0E94C20B2FEF42
:1008200081EE94E0215080409040E1F700C000004C
:1008300087E4CFCF8CEF8C0F813A90F46C2F8091AE
:100840000201909103010E94EF18882329F08C2F58
:100850000E94640B0E94C20B8C2F0E945D0BBBCFC9
:1008600080E28C0F883048F4C77081E001C0880FA7
:10087000CA95EAF70E94850BAECFEBE5EC0FE330AB
:1008800040F4F0E0E95BFE4F808190E0CF910C9462
:10089000B118E8E5EC0FE73150F4F0E0EE0FFF1F80
:1008A000E75EFE4F80819181CF910C94C718C03FC5
:1008B00030F08C2F0E948411CF910C945712CF915D
:1008C0000895882309F452C0823871F40E948C186C
:1008D00081FF4CC089E30E945D0B0E94C20B89E33B
:1008E0000E94640B0C94C20B833859F40E948C183C
:1008F00080FF3CC083E50E945D0B0E94C20B83E534
:10090000EFCF843859F40E948C1882FF2FC087E4FF
:100910000E945D0B0E94C20B87E4E2CF9CEF980F10
:10092000913AF0F290E2980F983050F4877091E08D
:1009300001C0990F8A95EAF7892F0E948B0BD2CFBD
:100940009BE5980F933020F490E080E00C94B11870
:1009500098E5980F973120F490E080E00C94C71848
:10096000803F20F00E94DE110C94571208951F93CF
:10097000CF93DF93182FEB010E94CF03209731F420
:10098000812FDF91CF911F910C9461048FE99FE03B
:100990000197F1F700C000002197F0CF70E060E010
:1009A000893311F460E570E00C94B704882321F0DA
:1009B0000E94850B0C94C20B0895882321F00E949D
:1009C0008B0B0C94C20B0895BF92CF92DF92EF92E3
:1009D000FF920F931F93CF93DF936C01D62FC72FF6
:1009E000FC011281F580F2949FE0F9220E947B0BBA
:1009F000E82E8823B9F0E12E1123A1F08C2F807FFF
:100A0000803421F080E28D0F8830D0F08091160282
:100A100082FD16C082E00E94230C0E947B0B91E0B5
:100A2000E82EE926BC2EB2948FE0B822FBE0FB153D
:100A300008F468C0EB2DF0E0EF5CFD4D0C94BF2195
:100A4000E12CF0CF0C2F0F70C07F11F00295007FCA
:100A5000112399F0002359F080E28D0F883010F0B7
:100A6000D11107C0802F0E94850B0E94C20B8D2FD1
:100A700041C0802F0E94950BF8CF8D2F0E946104FA
:100A8000002309F43FC080E28D0F883010F0D111AF
:100A900004C0802F0E948B0B03C0802F0E949B0BF1
:100AA0000E94C20B2FC00C2F0F70C07FC03211F0FC
:100AB0000295007FDD2381F0D13009F469C0112354
:100AC00009F473C0FF2009F469C0F601858180FF35
:100AD000CECF8F70858362C08091160282FF38C0AE
:100AE000112359F0002329F0802F0E94850B0E94CA
:100AF000C20B80E00E94CF0305C080E00E94610429
:100B00000111C7CFEB2DE850FF0B349720F40E9462
:100B10008C180E947203EE2009F44DC10E94770BDD
:100B200080FD49C1F60112820E94710B0E94B1073B
:100B3000C6010E94FC060E94710BDF91CF911F91AC
:100B40000F91FF90EF90DF90CF90BF900C94BC0777
:100B5000112389F0F11006C00E94A50B802B0E9482
:100B6000D604D0CF21E0F212F7CF0E94A50B802B44
:100B70000E94AB0BC7CFF11006C00E94B80B802FAC
:100B80000E94DD04BFCF31E0F31609F4BBCFF5CFEF
:100B9000112331F085E08F1508F4B4CF802FDFCF1B
:100BA00094E09F1508F4AECFEACFFF2041F3D9338C
:100BB00049F4FFEF27EE33E0F15020403040E1F7F9
:100BC00000C000008D2F0E9461049CCF8C2F869561
:100BD0008695837069F0813009F094CF8D2F9C2F1A
:100BE0009370111102C090E080E00E94C7188ACF74
:100BF0008D2F9C2F9370111102C090E080E00E9415
:100C0000B11880CF8D2F112329F00E9484110E94EA
:100C1000571278CF0E94DE11FACF8C2F837079F5AE
:100C2000111170CF4D2F429546954770440F440FD8
:100C30008D2F8F70042E01C0880F0A94EAF72D2F94
:100C40002071D4FF07C02FE030E001C0220F4A9589
:100C5000EAF72095C695C695C370822BC23049F03D
:100C600058F4C13019F00E9492074CCF0E948D07B2
:100C700049CF0E94970746CF0E948B0743CF8695A6
:100C8000112311F08C2F8170882309F43BCF4D2F55
:100C9000429546954770440F440F8D2F8F70042E58
:100CA00001C0880F0A94EAF72D2F2071D4FF07C0E6
:100CB0002FE030E001C0220F4A95EAF72095C69553
:100CC000C695C370822BC23049F058F4C13019F078
:100CD0000E94D80717CF0E94D30714CF0E94DD07C8
:100CE00011CF0E94A0070ECFCF70112329F08C2FB7
:100CF0000E94B1078D2F33CF8D2F0E94DD048C2FE2
:100D00000E94BC07FFCED23F51F160F4D03FB9F052
:100D1000D13F81F0112309F449C0F110A8CE8C2FE6
:100D20008F7121C0D33F11F1D43FA1F780911602FA
:100D300082FF26C08C2F8F71112311F314C0112351
:100D400049F084E08F1508F4DDCE8C2F8F710E945E
:100D5000C807D8CE95E09F1508F4D4CEF6CF8C2FD7
:100D60008F711111CDCF0E94B107CCCE112329F084
:100D70008C2F8F710E94A907C5CE0E94A607C2CEF4
:100D8000112349F0CF718C2F0E94B10763E08C2FA3
:100D90000E94080CB7CE81E00E94230CE1E0EF1521
:100DA00008F0B0CE82E00E94230CACCEF110FFCE52
:100DB0008C2F8F71A5CFDF91CF911F910F91FF9055
:100DC000EF90DF90CF90BF9008950F931F93CF9334
:100DD000DF93EC01688179818A810E946B088C0124
:100DE0000E94E2070E948A07B801CE01DF91CF91ED
:100DF0001F910F910C94E404CF93DF93EC018B814E
:100E00009C81892B29F08881998189238F3F59F40E
:100E1000DF91CF910895CE010E94E506CE01DF91CA
:100E2000CF910C94F401CE010E9439028111F3CFCD
:100E30000E947B0B882361F38A81882349F3809188
:100E4000160282FDE5CF82E0DF91CF910C94230C56
:100E500090E080E00E94B11890E080E00E94C71806
:100E60000E94A20B0E94C20B0E947E130C94571288
:100E70000E946B0B0C9428070E94920B0C9438076D
:100E800092959F70963091F058F4925F9F709230D7
:100E900058F4803F19F030F4883E30F481E0089532
:100EA0009A5FF4CF843FD1F380E00895883EB0F399
:100EB000813FD1F7F3CFFC01808191810E946108CD
:100EC0000C944007CF93DF9300D000D00F92CDB7A2
:100ED000DEB70F900F900F900F900F90DF91CF9192
:100EE0000895CF93DF9300D000D000D0CDB7DEB708
:100EF00026960FB6F894DEBF0FBECDBFDF91CF911F
:100F0000089508950C9481070E94820780939401AC
:100F10000C94280708950C94840790919401892BD0
:100F20000C9484079091940189230C9484079091E8
:100F3000940189270C9484070C9481070C949C07D6
:100F40000E949E07809393010C94280780E00C94E4
:100F5000A00791E001C0990F8A95EAF7892F0C94B8
:100F6000A00721E030E001C0220F8A95EAF78091C6
:100F70009301822B0C94A00721E030E001C0220FE6
:100F80008A95EAF720958091930182230C94A0071B
:100F900021E030E001C0220F8A95EAF780919301A9
:100FA00082270C94A00790919301892B0C94A007A1
:100FB0009091930189230C94A00790919301892724
:100FC0000C94A0070895990F890F982F977041E00E
:100FD00001C0440F9A95EAF786958695869593E029
:100FE000899FF0011124E057FE4F30E020E070E0CF
:100FF0005191DF011197CB01022E02C09695879582
:101000000A94E2F7817081958527842385278C9344
:101010002F5F3F4F2330310559F70895990F890FFE
:10102000982F977086958695869523E0829FF0018C
:101030001124E057FE4F50E040E080E0219130E085
:10104000092E02C0369527950A94E2F721703327BE
:10105000042E01C0220F0A94EAF7822B4F5F5F4FE4
:101060004330510559F70895CF92DF92FF920F93C5
:101070001F93CF93DF936C010091930180919401B2
:10108000082BC7E0D0E010E0FC2EC8010C2E02C0F7
:10109000959587950A94E2F780FD0CC02197A0F7FB
:1010A000F12C8F2DDF91CF911F910F91FF90DF9049
:1010B000CF900895B6018C2F0E94DB0E019771F33B
:1010C000F0CFCF93DF93EC010E943408BE01DF9193
:1010D000CF910C94DB0E1F93CF93DF93EB01909194
:1010E0008F01992331F0CB01DF91CF911F910C94A7
:1010F0006108882379F0CB010E943408182F682FEB
:10110000CE010E94E307BE01812FDF91CF911F9195
:101110000C94DB0ECB010E940E08182FF4CF1F9306
:10112000CF93DF93C091950116E0809196018C13C7
:1011300004C0DF91CF911F910895D0E01C9FF00172
:101140001D9FF00D1124E956FE4F408151816281AF
:101150007381848195810E9471072196C770E5CFC4
:101160004091C7015091C8016091C9017091CA01B5
:101170008091CB019091CC010C947107FF920F9359
:101180001F93CF93DF938091CC01807FD1F4809126
:10119000C9018823B1F08091950110919601609169
:1011A000C7017091C801A091CA01B091CB01062F6F
:1011B0000723C0910001D091010196E0F92E181388
:1011C00006C0DF91CF911F910F91FF90089590E09D
:1011D000109711F00F3F19F401968770F0CFF89E29
:1011E0009001F99E300D1124F901E956FE4F41811D
:1011F0004713F2CF40814613EFCF42814111ECCF2C
:10120000438154814A1B5B0B4C175D0728F7809183
:10121000CC018F7080618093CC01F901E456FE4FC0
:1012200080818F708061808387EC91E00E94FC0652
:10123000DF91CF911F910F91FF900C948F08AF9287
:10124000BF92CF92DF92EF92FF920F931F93CF93B3
:10125000DF93CDB7DEB761970FB6F894DEBF0FBE50
:10126000CDBF8C0185E0F801DE011D9601900D9245
:101270008A95E1F7F801E28087ECC82E81E0D82E4C
:101280006091CA017091CB016115710509F45FC1CC
:101290009091C7012091C801892F82238F3F09F4C3
:1012A00056C140815181A380B480F090C901F501FD
:1012B000E61BF70BBF01E0910001F0910101FF2057
:1012C00009F4F6C08091CC01382F307F6E177F076C
:1012D00008F0AFC0311179C0FE2C251323C0941340
:1012E00021C0E1101FC08F7080618093CC010E94EB
:1012F000B008C6010E94FC068091CC01F8018583EC
:101300008F2D61960FB6F894DEBF0FBECDBFDF9173
:10131000CF911F910F91FF90EF90DF90CF90BF90F2
:10132000AF900895AB2829F0842F85238F3F09F0D3
:1013300027C180E0F82FF170DF2E80FF3CC0809144
:1013400095012091960136E0821315C04D875E8786
:101350008D859E850E946108292F22952F7022304D
:10136000F0F0243018F59F70F1F0F8019581907F2E
:10137000D1F4D12C1EC090E0389FF001399FF00DC0
:101380001124E956FE4F6181651306C06081641324
:1013900003C062816E110FC001968770D5CF9F7018
:1013A00011F0882331F3805E883018F3C8010E9461
:1013B000FC06FD2CA5CFEE2009F4A2CF8091CC0134
:1013C00081608093CC01F12C9BCF251306C0941330
:1013D00004C0F801EE2009F487C0C8010E945B0731
:1013E000882319F1EE2009F18091CC01803270F050
:1013F0002091C7013091C80138872F831986BB8699
:10140000AA868C87CE0107960E94FC0686E0F8012A
:10141000A7ECB1E001900D928A95E1F70E94BE0819
:101420000E94B008FF24F3946BCFC8010E94FC0611
:10143000F9CF311113C07A2DB98AA88A6E2D898906
:101440000E94620787EC91E00E94FC0686E0F601AC
:1014500011928A95E9F70E94B008B5CF25130FC005
:1014600094130DC0E1100BC0F8018583C8010E94E0
:10147000FC0686E0F60111928A95E9F741CFC80192
:101480000E945B07882389F2EE2079F28091CC01DB
:10149000803208F4BBCF2091C7013091C8013A8354
:1014A00029831B82BD82AC828E83CE010196ACCF94
:1014B0006E177F0708F03EC0FE2CEE2009F4B5CF72
:1014C00025132AC0941328C08091CC0180FD1BC035
:1014D000982F907FC1F0F8018583903F31F0982FCD
:1014E000907F905F8F70892B8583C8010E94FC06D6
:1014F00086E0F801A7ECB1E001900D928A95E1F742
:101500000E94B008FDCE86E0F801A7ECB1E00190A2
:101510000D928A95E1F7F4CEC8010E945B07811114
:1015200075CF8091CC0181608093CC01C8010E946D
:10153000FC06E6CE7A2DB98AA88A6E2D89890E948A
:10154000620786E0F60111928A95E9F7D9CFEE207D
:1015500009F46BCFC8010E945B07F82E882309F4B9
:1015600064CF86E0F801A7ECB1E001900D928A9576
:10157000E1F787EC91E00E94CA030E94BE08C0CF49
:1015800081E08E25D7CE1F93CF93DF93CDB7DEB703
:101590002C970FB6F894DEBF0FBECDBF4F83588790
:1015A00069877A878B879C87CE0107960E941F09DF
:1015B000882369F08A859B85892B39F04F8158856E
:1015C000842F85238F3F09F071C016E05FC086E04D
:1015D000FE013796DE01119601900D928A95E1F792
:1015E0008A859B85892B89F38F81988589238F3FF5
:1015F00061F32091960130E0C90101968770992727
:10160000409195014817190671F40E943C07109209
:1016100096011092950186E0E7ECF1E0DF011D9262
:101620008A95E9F7D2CF96E0929FD001939FB00DB3
:101630001124A956BE4FFE01319601900D929A9544
:10164000E1F7809396010E948F08BFCF819FC00170
:10165000112489569E4F0E941F098823E9F0E091CA
:1016600095011E9FF0011124E956FE4F40815181E2
:1016700062817381848195810E94710780919501B7
:1016800090E001968770992780939501809195014C
:10169000909196018913DACF2C960FB6F894DEBF9D
:1016A0000FBECDBFDF91CF911F91089569857A85D7
:1016B0008B859C850E94710788CF682F80910201DD
:1016C000909103010C942519682F8091020190914B
:1016D00003010C94271980910201909103010C944D
:1016E00029198091D50185958595859508958091D5
:1016F000D501877008959091D501977081E009F424
:1017000080E008958091E00108959091E001892B97
:101710008093E001089580959091E0019823909343
:10172000E00108951092E00108959091DF01892B66
:101730008093DF01089580959091DF019823909325
:10174000DF0108951092DF0108958091D601089578
:1017500008950C94A80B9091160292FD08C09091E8
:10176000D601981721F08093D6010C94A90B089507
:101770008091D601882329F01092D60180E00C9444
:10178000A90B0895CF93DF93E0910201F09103013B
:101790008091E0018083E0910201F091030180815A
:1017A0009091DF01892B80839091D601992381F05C
:1017B000E0910201F09103018081892B8083809167
:1017C0000201909103010E94DD1881110E94B80B63
:1017D000C0910201D091030148E050E06DEC71E04E
:1017E000CE010E94E021892B69F088E0FE01ADEC7A
:1017F000B1E001900D928A95E1F7CE01DF91CF9192
:101800000C949818DF91CF91089508950C94050CCD
:101810009091160292FD10C098E0899F90011124CA
:10182000622B6093D5010E94B1078091D501859507
:10183000859585950C94060C0C94B1071092D501F2
:1018400080E00C94060C9091D501809589238093BB
:10185000D501282F277091F4282F082E000C330B68
:101860009217130659F09091160292FD07C08595C4
:10187000859585950E94BC070C941E0C0895909147
:10188000160292FB222720F9281769F080FB92F9B3
:101890009093160280911502909116020E948A0C74
:1018A00082E00C94230C08958091160282FB882715
:1018B00080F991E089270C943F0C81E00C943F0C57
:1018C00080E00C943F0C6FEF7FEF90E080E00C9491
:1018D000192290E080E00E94F521893E9E4F11F48C
:1018E0000C948C1380E0089582E090E00C94ED213C
:1018F00083E090E00C94ED21CF9384E090E00E948F
:10190000ED21C82F82E290E00E94ED21982F8C2FCC
:10191000CF910895CF93C92F682F84E090E00E9463
:10192000FB216C2F82E290E0CF910C94FB21AB0164
:10193000BC018FE090E00C940D22AB01BC0183E16F
:1019400090E00C940D2260E070E0CB010C949D0CB3
:1019500060E070E0CB010E94970C0C94A30C69EE40
:101960007EEF90E080E00E94192260E082E090E04B
:101970000E94FB2160E083E090E00E94FB21109236
:10198000940160E084E090E00E94FB2160E082E24C
:1019900090E00E94FB2160E085E090E00E94FB2146
:1019A00060E086E090E00E94FB216FEF87E090E02E
:1019B0000E94FB2140E050E0BA0188E090E00E94E4
:1019C0000D2260E08DE090E00E94FB2140E050E0BD
:1019D000BA0188E190E00E940D2260E087E190E08A
:1019E0000E94FB2140E050E0BA018CE190E00E94AF
:1019F0000D2270E060E080E290E00E94192240E059
:101A000050E0BA0188E190E00E940D2280E00E943F
:101A1000A5130E94D2130C94A80C0C94AF0C682F41
:101A20008EE090E00C94FB210E94D3196093E701B3
:101A30007093E8018093E9019093EA016093E301D8
:101A40007093E4018093E5019093E601089585B7D2
:101A5000806885BF85B7806885BF0895089508951B
:101A60000C942F0D08950C94320D0E94270D89EBD4
:101A70009FE00E9482180E942E0D0C94300D81E090
:101A800008950C943F0D089508950E94430D0C9401
:101A9000440D0E94D30F0C9471030E94BE190E9442
:101AA000E1130E9476100E94490D0C94330DAF9201
:101AB000BF92CF92DF92EF92FF920F931F93CF933B
:101AC000DF93CDB7DEB72A970FB6F894DEBF0FBE0F
:101AD000CDBF0E948510D82E81110E94140D91EE69
:101AE000A92E91E0B92E10E000E0C02E802F0E94B8
:101AF000F30FE82EF501F1905F01F81609F449C0E3
:101B00008091EB0181FD0E94F90F8F2D8E25F82F1A
:101B1000F170FF2E80FD3BC081FF3BC0BB24B3941E
:101B200082E0F82E0E94410D882399F0BE82CF8278
:101B3000EF2081E009F480E088870E94C719816066
:101B4000782F9A8789874E815F8168858A850E9470
:101B50008C03F801EF51FE4F80818F25808381E057
:101B6000D11001C080E02A960FB6F894DEBF0FBEF8
:101B7000CDBFDF91CF911F910F91FF90EF90DF903C
:101B8000CF90BF90AF90089501E010E0AECFB12CA0
:101B9000C9CF01301105C1F78FEF89838A831B827A
:101BA0000E94C7198160782F9D838C8349815A8157
:101BB0006B818D810E948C03D2CF0E94570D0E94B1
:101BC00072120C948103CF93DF930E94DF0EEC011D
:101BD000811521E5920708F042C0811530E5930791
:101BE00008F09DC0883E910530F5803E910508F0D3
:101BF00092C0883A910588F4853A910508F084C02E
:101C00008130910509F487C0009709F484C00497D6
:101C100008F081C0D0E0C0E07EC08F3B9105D0F7D6
:101C2000C85AD0E0CC0FDD1FC65BDE4F0990D881CB
:101C3000C02DD46470C08115904250F4C11581E06C
:101C4000D80708F068C0C03FD10520F3D06563C055
:101C5000C11590E4D907F0F2DF70D06A5CC081153D
:101C600025E5920700F5811534E5930708F08BC050
:101C7000811543E5940708F073C0C11582E5D807C4
:101C800008F469C0CE018370992721E030E002C0DA
:101C9000220F331F8A95E2F7C695C69580E2C89F4A
:101CA000E001112454C0C11599E5D907A8F4C11564
:101CB00028E5D20708F06CC0C11536E5D30708F057
:101CC000A9CF8C2F0E94760FC82FD0E0DC2FCC2715
:101CD000CC27DF71D0621FC0C1154AE5D40708F4D4
:101CE0005CC0CE0190568115904208F093CF8D2FA5
:101CF0008F710E94760F90E0982F882788279F7118
:101D00009C012C2BE901E6CFC55AD0E0C858DE4F24
:101D1000C881D0E0D064CE01DF91CF910895E4E096
:101D200096958795EA95E1F783702C2F2695269551
:101D3000237040E2249F90011124382B8C2F837054
:101D4000C1E0D0E002C0CC0FDD1F8A95E2F7C22BC4
:101D5000D32BDC68E0CFDC2FCC27C16FD06ADBCF80
:101D60008370992721E030E002C0220F331F8A954B
:101D7000E2F7C695C69590E2C99FE0011124C22BF7
:101D8000D32BDA68C8CFD82FCC27C46FD06AC3CF83
:101D9000DC2FCC27C06FD06ABECF8C2F8F700E94F3
:101DA000760F34E0D695C7953A95E1F7CF709C2F22
:101DB000EC01D069B0CF0E94CF160C94E30D8238AD
:101DC0009105B1F1B0F48133910509F475C048F47F
:101DD0008932910509F469C08A32910509F473C00A
:101DE00008958533910509F459C08933910501F1AE
:101DF0000895833E9105A9F138F4803E9105F9F0EC
:101E0000823E910549F10895863E9105A9F1873EEC
:101E10009105C9F1843E910519F52091160221FF23
:101E20001FC08091150284FD14C087EE90E00895D4
:101E3000209115022370A1F080EE90E0089520918A
:101E4000150220FD47C03091160230FF09C024FF63
:101E500044C090E080E004C02091150222FDF7CF3D
:101E600008952091150222FD3BC03091160230FDED
:101E7000E3CF24FFF5CFEDCF2091150223FFF0CF64
:101E800024FDE7CFD2CF2091150223FD2CC0309145
:101E9000160231FFEECF84EE90E0089520911502F6
:101EA00025FFDECF89E290E008952091150225FFFD
:101EB000D7CF85E390E008952091150226FFD0CF7B
:101EC0008AE290E008952091150226FFC9CF81E3B0
:101ED00090E0089589E390E0089583EE90E00895FE
:101EE00082EE90E0089586EE90E0089590911502BC
:101EF00092FF06C0282F28712830F9F4877F84606C
:101F000093FF06C0282F28712831F1F4877E846161
:101F10002091160220FF06C0382F38713830D9F4CE
:101F2000877F816021FF06C0282F28712831D1F4D6
:101F3000877E816194FD877E0895282F2471243047
:101F4000F9F68B7F8860DCCF282F2471243101F7CC
:101F50008B7E8861DDCF382F3171313019F78E7F5C
:101F60008860E0CF282F2171213121F78E7E886192
:101F7000E1CF80E008950C94630C0E9485108FE3FC
:101F80009CE90197F1F700C000000E94851080E0F5
:101F90000E94F30F80FF04C00E94BB0F0C94121A22
:101FA00008950C94BD0F0E94690C811102C00E941B
:101FB0000D0D0E94740C8093EB010E947C0C909399
:101FC0001602809315020E94D10F0E94780C0E9485
:101FD0008B07809193010C949E0708950C94ED0F4C
:101FE00008950C94F00FE82FF0E0E75EFD4F80813C
:101FF0000895089580EA8A95F1F7089500C008953C
:102000000C94FA0FF894E82FE295EF70F0E031A10C
:10201000282F2F7081E090E001C0880F2A95EAF701
:10202000982F9095932391A392A1892B82A37894C2
:10203000089580EF0E94021081EF0E94021084EF49
:102040000E94021085EF0C940210CF92DF92EF9263
:10205000FF920F931F93CF93DF93EC01C62E062FB1
:1020600010E0C80185589E4F7C01FC0180818F3FA4
:1020700091F1F894E82FE295EF70F0E091A18F7064
:1020800021E030E001C0220F8A95EAF7892F822BE8
:1020900081A382A12095282322A378940E94FE0F79
:1020A000DFB0D4FA882780F9DD24D394D8267D992F
:1020B0001BC082E0D82AF70180818F3F11F00E9477
:1020C000021061E0D11001C060E08C2D0E94001070
:1020D000C00FD11FD882DF91CF911F910F91FF9038
:1020E000EF90DF90CF90089580E0E4CF0E94191028
:1020F00010921A02109219021092180210921702EE
:1021000082E00E94BD100C9425021F93CF93DF93B1
:1021100000D0CDB7DEB71A82198260E0CE010196F9
:102120000E94251061E0CE0101960E94251042E038
:1021300050E0BE016F5F7F4F87E192E00E94E02197
:1021400011E0009709F410E0892B31F089819A8120
:102150009093180280931702212F42E069E172E008
:1021600087E192E00E94BE100E942702812F0F900B
:102170000F90DF91CF911F9108950895FF920F93D3
:102180001F93CF93DF93F82E092F162FD72FC42F2D
:10219000222349F081E08093EE010E94C7199093B9
:1021A000ED018093EC018091EE018823A1F08091F4
:1021B000EC019091ED010E94DF19059760F0EF2D81
:1021C000F02FA12FBD2FCE0FDF2FD11DEC17FD0754
:1021D00041F41092EE01DF91CF911F910F91FF908A
:1021E000089581918D93F2CF0E94FA1B0E944D0DAC
:1021F0000C94061C0E940A1C0E94DD0D0C94241CE9
:102200000E9467190E94E11B0E94350D0E94F41084
:102210000E94FA100E94450DFBCF8091F50180FFCE
:102220000DC06091090170E0660F771F603871057D
:1022300070F56115710569F1862F089581FF07C05A
:102240006091090184E0689FB0011124EFCF609193
:10225000090182FD0AC08091F4018823A9F0209130
:10226000080160910901821710F088E0ECCF869F89
:10227000C001112433E0880F991F3A95E1F7622FCE
:1022800070E00E94AB21D2CF68E070E0D5CF8FE73D
:10229000089581E008958091F50180FF0CC0609160
:1022A000050170E0759567957595679561157105E0
:1022B00049F1862F089581FF06C06091050170E005
:1022C00075956795F3CF6091050182FD0BC09091E4
:1022D000F3019923A1F06091040180910501961703
:1022E00038F0682F70E06038710500F38FE70895CB
:1022F000899FC001112470E00E94AB21F4CF61E0FE
:1023000070E0D7CF81E00895803F31F40E940D1135
:1023100081958093F9010895813F19F40E940D1170
:10232000F8CF823F31F40E940D1181958093F8011E
:102330000895833F19F40E940D11F8CF893F29F4C5
:102340000E944B118093FA0108958A3F21F40E9464
:102350004B118195F7CF8B3F31F40E944B11819542
:102360008093FB0108958C3F19F40E944B11F8CF24
:102370009CE0980F953070F4845F990B21E030E079
:1023800001C0220F8A95EAF78091F701822B809392
:10239000F70108958D3F31F48091F50181608093BC
:1023A000F50108958E3F21F48091F5018260F7CF09
:1023B0008F3FB9F78091F5018460F1CF4091F8012A
:1023C000803F59F48091F90187FF0DC01092F90107
:1023D00041110BC01092F40108C0813F81F480913B
:1023E000F90118169CF3442381F08091FA01909131
:1023F000FB01892B09F05AC01092F3010895823F26
:1024000049F447FFF0CF1092F8018091F901811152
:10241000ECCFE0CF833F19F41416ACF3E4CF9091E6
:10242000FA01893F29F41916F4F61092FA01DBCF6C
:102430008A3F19F497FFD7CFF8CF9091FB018B3FDC
:1024400029F497FFD0CF1092FB01CDCF8C3F19F428
:102450001916CCF3C8CF9CE0980F953090F4845FA8
:10246000990B21E030E0B90102C0660F771F8A9511
:10247000E2F7CB0180959091F70189238093F701D2
:10248000B2CF8D3F31F48091F5018E7F8093F501BD
:10249000AACF8E3F21F48091F5018D7FF7CF8F3F3A
:1024A00009F0A1CF8091F5018B7FF0CF08950E94B4
:1024B000C7199C019091F8018091F901982B21F0A6
:1024C0003093F2012093F1019091FA018091FB0188
:1024D000982B21F03093F0012093EF0186EF91E0EB
:1024E0000C94A318EF92FF920F931F93CF93DF9357
:1024F00000D000D000D0CDB7DEB786E0E6EFF1E047
:10250000DE01119601900D928A95E1F7E090F801B5
:10251000F090F9010091FA011091FB011092F8017D
:102520001092F9011092FA011092FB018E2D8F2961
:1025300091F08091F1019091F2010E94DF19AC01BC
:102540009091F401992309F43FC080910A01841706
:10255000150608F447C0802F812B91F08091EF0180
:102560009091F0010E94DF19AC019091F301992341
:1025700009F477C0809106018417150608F47FC01E
:102580008091F8019091F901892B9091FA01892BA2
:102590009091FB01892B11F00E94571286E0FE01F9
:1025A0003196A6EFB1E001900D928A95E1F726965B
:1025B0000FB6F894DEBF0FBECDBFDF91CF911F9154
:1025C0000F91FF90EF90089520910B018AE0289FD2
:1025D000900111242417350708F0BDCF9F5F909319
:1025E000F40102C09F3FD1F7EE2059F00E940D1177
:1025F0009FEF1E140CF491E0899F802D112480938D
:10260000F801FF2059F00E940D119FEF1F140CF4E8
:1026100091E0899F802D11248093F9013091F80178
:10262000332309F498CF2091F901222309F493CFA1
:1026300045EB3403C0011124992359F09093F8011C
:1026400045EB240390011124332339F03093F90131
:1026500082CF81E08093F801F3CF81E08093F9018C
:102660007ACF209107018AE0289F90011124241736
:10267000350708F085CF9F5F9093F30102C09F3F1D
:10268000D1F7002359F00E944B119FEF10160CF464
:1026900091E0899F802D11248093FA01112359F034
:1026A0000E944B119FEF11160CF491E0899F802D31
:1026B00011248093FB013091FA01332309F460CF98
:1026C0002091FB01222309F45BCF45EB3403C001C9
:1026D0001124992359F09093FA0145EB24039001BA
:1026E0001124332339F03093FB014ACF81E08093EA
:1026F000FA01F3CF81E08093FB0142CF86E0E6EF61
:10270000F1E0DF011D928A95E9F71092F401109231
:10271000F3011092F501089583E290E00E94ED210B
:10272000823289F484E290E00E94ED21873059F4EE
:1027300085E290E00E94ED2191E0883009F090E080
:10274000892F8170089580E0FCCFCF93C82F6FEF61
:10275000811162E283E290E00E94FB216FEFC111E0
:1027600067E084E290E00E94FB216FEFC11168E016
:1027700085E290E0CF910C94FB21089586E290E0F1
:102780000E94ED21682F70E090E080E008950895A8
:10279000CF93C62F0E94C7136C2F86E290E0CF9193
:1027A0000C94FB2180E00E94A51360E070E0CB0157
:1027B0000E94C8130E9450160E94331781E00C94A7
:1027C000A5130E94BD130E94BE130E94C7130E944E
:1027D0008C13811102C00C94D2130895CF93FB0186
:1027E000C281CC2309F19C0122513F4520313105A2
:1027F00020F582510E944317C0E08C2FCF9108959D
:1028000081E00E94B10743E062E081E00E941C0287
:10281000F3CF81E00E94BC0743E062E081E00E94C8
:102820001C02EBCF82E0F6CF8031FFE59F0789F3F2
:1028300081319F45B9F3C1E0E0CF8031EFE59E07DC
:10284000F9F281319F45C9F682E0DBCF2FEFFC0121
:10285000208308951F93CF93DF93EC01162FE88117
:10286000E150E33108F055C0F0E0E35CFD4D0C941D
:10287000BF21198289E08A83612FCE01DF91CF9138
:102880001F910C94BA1A89818230B1F0833059F0CB
:102890008130A9F40E94D3190E94C5216A837B83E9
:1028A0008C839D83E9CF80E00E94F30F8A8381E0CF
:1028B0000E94F30F8B83E0CF0E94BE13EDCF612FF8
:1028C000CE010E942614D8CF89818230C1F76A8157
:1028D0007B818C819D810E94C5210E94C813CCCF31
:1028E0004B816A8189810E9422169827892798271F
:1028F0009D838C83C1CF2C813D81322723273227B2
:102900004B816A8189810E943B16B6CF0E94501686
:10291000B3CF8FEF8883B0CF0E94DC168983ACCF12
:102920000E94DE169827892798279A838983A4CF47
:102930006B8170E089819A81AE014C5F5F4F98276F
:10294000892798270E94E11697CF6B8170E08981D3
:102950009A81AE014C5F5F4F9827892798270E9484
:1029600008178ACF0E94331787CF0E940F16D6CF41
:102970006B8170E089819A81AE014C5F5F4F98272F
:10298000892798270E94811677CF6B8170E0898113
:102990009A81AE014C5F5F4F9827892798270E9444
:1029A000A6166ACFCF93DF93EC01FB0182818823C7
:1029B00009F433C1C330FDE5DF07C0F5CA3F9CE52C
:1029C000D90730F49E0122503C4524313105B0F541
:1029D0000E947C0C9093160280931502C1318CE505
:1029E000D80709F4EEC008F069C0C930ECE5DE078D
:1029F00009F4D5C0C8F5C5308CE5D80709F4C7C0BF
:102A000000F5C330ECE5DE0709F4B9C008F0BBC03F
:102A1000C230DC4509F4ADC08091150290911602D8
:102A20000E948A0C0E943C0780E008C0C136EDE598
:102A3000DE0771F2C53AFDE5DF0751F2DF91CF9174
:102A40000895809115028062C7309CE5D90709F48A
:102A500093C0809115028061C830DC4508F48CC0B9
:102A600080911502806488C0809115028B7FCD30E3
:102A7000FCE5DF0709F480C098F4809115028E7F91
:102A8000CB309CE5D90709F477C0809115028C60A2
:102A9000CC30DC4508F470C0809115028D7F6CC08D
:102AA000809115028F7ECF30FCE5DF0709F464C00A
:102AB00008F47BC0809115028F7D5EC0CD3F9CE500
:102AC000D90709F47AC050F5C531FCE5DF0709F4F0
:102AD00086C098F480911502837FC3319CE5D907A5
:102AE00009F44AC008F471C00E943C079091150295
:102AF000892F97FB87F980583FC0CB3FFCE5DF0764
:102B000009F449C008F055C0809116028160CA3F9F
:102B1000DC4509F081CF809316027ECFC130EDE510
:102B2000DE0709F468C0A8F4CF3F8CE5D80709F4A4
:102B300052C0809116028360C115DD4560F380911B
:102B40001602982F909591708E7F892B90FB81F9BA
:102B5000E2CFC136EDE5DE0709F451C0C53AFDE527
:102B6000DF0709F453C0C230DD4509F055CF80E0DE
:102B700043C0809115028160809315024DCF8091F2
:102B800015028260F9CF809115028460F5CF8091A3
:102B900015028860F1CF809116028260BCCF0E943E
:102BA0003C07809115028068E7CF80911502877FEE
:102BB000E3CF809116028E7FAECF809116028D7F7B
:102BC000AACF809115028F7BD7CF0E943C078091BE
:102BD00015028F77D1CF809116028C7F9CCF809188
:102BE000150282FB992790F921E0922790FB82F948
:102BF00090FB83F9C1CF81E00E940F0D0DCF909122
:102C00001502892F8F7E94FF8061B6CF90911502B7
:102C1000892F8E7F90FF8160AFCF81E00FCF84E05E
:102C2000089524E0629FB001112450E0440F551F25
:102C3000640F751F28E0829FC0011124860F971F23
:102C4000879608950F931F93CF93DF930E941116D9
:102C50008C010E94ED21C82FD0E0DC2FCC27C801C9
:102C600001960E94ED219E01282BC901DF91CF9191
:102C70001F910F9108950F931F93CF93DF93122FFE
:102C8000032F0E941116EC01602F0E94FB21612F7F
:102C9000CE010196DF91CF911F910F910C94FB21F2
:102CA000EF92FF920F931F93CF93DF938CEAE82E5E
:102CB00080E0F82EC0E08701D0E001C0D1E0F8014B
:102CC0002591349140E06D2F8C2F0E943B16F80126
:102CD00032962591349141E06D2F8C2F0E943B1646
:102CE0000C5F1F4FD13051F788E0E80EF11CCF5F29
:102CF000C43009F7DF91CF911F910F91FF90EF90B2
:102D00000895EF92FF920F931F93CF93DF93EC01FF
:102D10008A017C01E60EF71ECE018796CE15DF05EF
:102D200039F4DF91CF911F910F91FF90EF900895AB
:102D3000C032D10540F40E94ED21F80180830F5F7D
:102D40001F4F2196E9CFF8011082F9CFCF92DF9281
:102D5000EF92FF920F931F93CF93DF937C016A0151
:102D60008C01060F171FEC01CE018796C017D10703
:102D700049F4DF91CF911F910F91FF90EF90DF9079
:102D8000CF900895C032D10540F4FE01EE19FF093D
:102D9000EC0DFD1D60810E94FB212196E5CF462FA1
:102DA000843038F4723028F4623018F4672F0C94B1
:102DB000221690E080E0089580E1089589EB93E089
:102DC0000895EF92FF920F931F93CF93DF93EC013F
:102DD0008A017C01E60EF71ECE01895B9F4FCE155E
:102DE000DF0539F4DF91CF911F910F91FF90EF90A4
:102DF0000895C93B23E0D20740F40E94ED21F80179
:102E000080830F5F1F4F2196E7CFF8011082F9CF23
:102E1000CF92DF92EF92FF920F931F93CF93DF93A6
:102E20007C016A018C01060F171FEC01CE01895B42
:102E30009F4FC017D10749F4DF91CF911F910F9198
:102E4000FF90EF90DF90CF900895C93B23E0D20729
:102E500040F4FE01EE19FF09EC0DFD1D60810E949A
:102E6000FB212196E3CFCF93DF93C7E4D0E060E06E
:102E7000CE010E94FB212196C11584E0D807B9F745
:102E8000DF91CF910895DF92EF92FF920F931F93FE
:102E9000CF93DF9300D000D0CDB7DEB7F82E8FE010
:102EA0008F1540F08FEF93E00E94ED2107E410E0D2
:102EB0008823C1F00F900F900F900F90DF91CF916A
:102EC0001F910F91FF90EF90DF900895011584E01E
:102ED000180781F3C8010E94ED21811101C0FA9405
:102EE0000F5F1F4FF110F2CF19821A821B821C82D2
:102EF000DD24D39478018FEFE81AF80AC8010E9404
:102F0000ED2189831A828823A9F29FEF980F9330CD
:102F100078F48A83D9820E5F1F4FC7010E94ED218A
:102F20008B83882339F2CE0101960E946703E2CF9A
:102F30008701F9CFCF93DF93EB0186319C4511F5E3
:102F40000E94820B9A81992399F08A7A91E009F480
:102F500090E09093FC01811109C089E20E945D0B11
:102F60000E94C20B80E0DF91CF91089585E3F6CFF8
:102F70008091FC01811104C089E20E94640BF0CFB2
:102F800085E3FBCF81E0EFCF0F931F93CF93DF93C8
:102F9000C42FD22FFC0182818823C9F04093FF0106
:102FA0000E94C7199093FE018093FD0180E28C0F6F
:102FB000883008F050C0C77081E001C0880FCA9502
:102FC000EAF7DF91CF911F910F910C94D6041091E5
:102FD000FF01141335C08091FD019091FE010E9404
:102FE000DF19883C910560F5C0E2CD0F1D17B9F0DF
:102FF00080E2810F883040F4177081E001C0880FB3
:103000001A95EAF70E94DD04C83048F481E09D2F4C
:10301000977001C0880F9A95EAF70E94D604802F16
:103020000E94CE04C830B8F4D77081E001C0880F88
:10303000DA95EAF7DF91CF911F910F910C94DD049F
:1030400080E28C0F883038F4C77081E001C0880FAF
:10305000CA95EAF7EFCFDF91CF911F910F910895B5
:103060000F939C01CB01233F4CE5340759F1A8F4A1
:10307000283DFCE53F0701F1293D4CE53407D1F13E
:10308000273D3C4591F406E221EE41EE67ED7CE5FB
:103090000E94C41780E00F910895253FFCE53F078B
:1030A000E9F0B0F0263F3C45F9F0FC01828188232D
:1030B00039F11092FF01EFCF07E225EE45EE68ED02
:1030C0007CE5E6CF06E221EE40EE63EF7CE5E0CF63
:1030D00007E225EE44EE64EF7CE5DACF06E221EE6E
:1030E00042EE65EF7CE5D4CF07E225EE46EE66EFD3
:1030F0007CE5CECF08E221E045EE69ED7CE5C8CF66
:1031000081E0C9CF90938D0180938C0108959093B5
:103110000502809304020895E0910402F0910502F3
:10312000309721F00190F081E02D099480E008951E
:10313000E0910402F0910502309721F00280F381C2
:10314000E02D09940895E0910402F0910502309772
:1031500039F022E0DC012C930480F581E02D099404
:10316000089520910202309103022817390771F067
:103170009093030280930202E0910402F091050211
:10318000309721F00680F781E02D09940895209171
:103190000002309101022817390771F09093010263
:1031A00080930002E0910402F0910502309721F033
:1031B0000084F185E02D099408959C012E5F3F4F16
:1031C000AC01485F5F4F80E02417350709F408958C
:1031D000F90191919F019923B9F38F5FF5CF662390
:1031E00049F0FC01329608962191261729F0E8173C
:1031F000F907D1F780E0089581E008959C01FC0172
:1032000032969FEF80E04191461751F09F3F19F4AD
:10321000411101C0982F8F5F8630A9F79F3F09F4B5
:103220000895290F311D97FD3A95F901628308959C
:10323000FC01329608962191261303C0DF011197F5
:103240001C92E817F907B9F708950C94FE180C942E
:103250001819029626E0FC0111922A95E9F70895C3
:1032600008950C943019811105C081E08093060205
:103270000C94311982E0FACF83E0809306020C941B
:1032800031190C94331981E0809306020C943119A2
:103290000C944319089508950C944B1908950895BA
:1032A0000C944A190E944E190E9485100E944F19D1
:1032B00080E00E94F30F91E0811107C081E00E943D
:1032C000F30F91E0811101C090E0892F08950895D6
:1032D0001F921FB61F9211248F939F93AF93BF939A
:1032E00080910702811113C080911B0290911C02F2
:1032F000A0911D02B0911E024196A11DB11D8093A7
:103300001B0290931C02A0931D02B0931E02BF915A
:10331000AF919F918F911F901FBE1F901895809124
:103320002302843031F10E9491021092070288E159
:1033300090E020E40FB6F894A895809360000FBE4B
:103340002093600083B7817F846083BF83B78160EF
:1033500083BF7894889583B78E7F83BF0FB6F89428
:10336000A895809160008861809360001092600051
:103370000FBE08950E943C070C94950282E084BD24
:1033800093E095BD9AEF97BD80936E0008952FB797
:10339000F89480911B0290911C02A0911D02B091A3
:1033A0001E022FBF08952FB7F89460911B027091F1
:1033B0001C0280911D0290911E022FBF08959C0156
:1033C0004FB7F89480911B0290911C02A0911D02AE
:1033D000B0911E024FBF821B930B089578941F92E9
:1033E0001FB61F9211248F939F93AF93BF93809129
:1033F0001B0290911C02A0911D02B0911E02019629
:10340000A11DB11D80931B0290931C02A0931D026D
:10341000B0931E02BF91AF919F918F911F901FBEDD
:103420001F90189581E08093E00080E28093D8009F
:103430001092C9008FE19EE40197F1F700C00000EF
:1034400087E090EBDC0180932C0290932D02A093F7
:103450002E02B0932F0288E19CE00FB6F894A89555
:10346000809360000FBE90936000FFCF80911302A5
:10347000089508959C0184E08093E9009FEF809176
:10348000E800915085FD06C085ED8A95F1F70000B2
:103490009111F5CF8091E80085FF0CC050E040E02D
:1034A00066E070E0C9010E94CB1C8091E8008E7735
:1034B0008093E8000895CF93DF93EC0181E080933F
:1034C000E9008FEF9091E800815095FD06C095EDE1
:1034D0009A95F1F700008111F5CF8091E80085FF02
:1034E00014C050E040E068E070E0CE010E94CB1CC8
:1034F0008091E8008E778093E80088E0FE01ABE0E1
:10350000B2E001900D928A95E1F7DF91CF91089595
:103510008093080270930A0260930902809123024B
:103520008430F9F48093E9008FEF9091E8008150A6
:1035300095FD06C095ED9A95F1F700008111F5CF44
:103540008091E80085FF0DC050E040E063E070E04E
:1035500088E092E00E94CB1C8091E8008E778093F7
:10356000E8000895BC0184E00C94881ABC0183E053
:103570000C94881ACF93FC01603221F580912302CC
:10358000843001F5C091E900CF702091EC00922FBA
:10359000917020FD90E8C92B82E08093E900809132
:1035A000E80080FF0CC050E040E060E270E0CF0136
:1035B0000E94CB1C8091E8008E778093E800CF704A
:1035C000C093E900CF91089580912202811109C032
:1035D0000E94AA1E0E94071F8091E20084608093CF
:1035E000E20008951092220208950C94431960910C
:1035F0001F0281E0611101C080E00C943C199091A0
:10360000230281E0943009F080E060911F020C9465
:10361000411942E061EC81E00E94261E42E261EC29
:1036200084E00E94261E42E261EC82E00E94261E97
:1036300042E260EC83E00E94261E9091230281E02A
:10364000943009F080E060911F020C94331980914E
:103650002502833009F462C030F48130D9F1823020
:1036600009F49EC008958A3009F48AC08B3009F4A9
:1036700070C0893009F051C080912402813209F074
:103680004CC08091280290912902009719F002976E
:1036900009F043C08091E800877F8093E800809123
:1036A000E80082FF36C09091F3008091F20002970B
:1036B00031F48091F100813011F0863021F4809155
:1036C000F100809313028091E8008B778093E800EB
:1036D0000C945A1E80912402813AF9F48091E800FA
:1036E000877F8093E8008091280290912902892B9E
:1036F00061F468E08BE092E070E00E94691D8091C7
:10370000E8008B778093E800089560E090E080E027
:10371000F3CF809123028111C2CF089580912402BA
:10372000813AD9F78091280290912902892BA9F733
:103730008091E800877F8093E8008091E80080FF17
:10374000FCCF809118018093F1008091E8008E7782
:10375000BDCF80912402813201F78091280290919F
:103760002902892BD1F68091E800877F8093E800B9
:103770000E945A1E80912602809318010C943C07E7
:1037800080912402813249F68091E800877F8093FE
:10379000E8000E945A1E8091270280931402089527
:1037A00080912402813A09F0B8CF8091E800877FA8
:1037B0008093E8008091E80080FFFCCF80911402A4
:1037C000C2CF84B7877F84BF0FB6F894A895809145
:1037D0006000886180936000109260000FBE80E8F6
:1037E00090E00FB6F89480936100909361000FBE53
:1037F0000C9448190E94AA1E0E94071FE2EEF0E0F6
:1038000080818460808378940C9490218CE091E096
:103810000C948718809123028530A9F480912302AB
:10382000853011F00C94BA190E948F1980912102F1
:103830008823A1F30E945219882381F30E94B51CAA
:103840000E943C07EBCF0895CF93DF93CDB7DEB74F
:10385000A0970FB6F894DEBF0FBECDBF80912302B4
:10386000843009F583E08093E9008091E80082FFCD
:103870001AC08091E80090E085FF09C050E040E068
:1038800060E270E0CE0101960E941A1D91E08091E5
:10389000E8008B778093E800992329F060E2CE015D
:1038A00001960E942A14A0960FB6F894DEBF0FBEB0
:1038B000CDBFDF91CF9108950C945E1C292F332743
:1038C0002330310521F168F42130310509F443C07A
:1038D0002230310509F444C090E080E030E020E07F
:1038E00026C02132310551F122323105A9F763306A
:1038F000710590F7FB01EE0FFF1FE058FE4F20818E
:10390000318163587E4FFB01808190E010C0992780
:103910008130910581F0009729F00297E9F6E4E6FD
:10392000F1E002C0E8E9F1E0849190E09F01FA0142
:10393000318320830895E0E8F1E0F6CF633071052C
:1039400058F6660F771FFB01EA57FE4F2081318141
:1039500089E090E0ECCF82E190E027EF31E0E7CF23
:103960008BE590E02CE931E0E2CF80E189BD82E196
:1039700089BD09B400FEFDCF8091D8008F7D809372
:10398000D8008091E00082608093E0008091E000A8
:1039900081FDFCCF0895AF92BF92CF92DF92FF924C
:1039A0000F931F93CF93DF936C01EB018A010E9469
:1039B000791EF82E811123C00115110539F0F80187
:1039C00080819181C81BD90BC80ED91EB12CA12CA6
:1039D0002097A9F08091E80085FD22C08091E80041
:1039E0008E778093E80001151105A1F0F801808120
:1039F0009181A80EB91EB182A08285E0F82E8F2D8C
:103A0000DF91CF911F910F91FF90DF90CF90BF90EA
:103A1000AF9008950E94791E8823D1F2F82EEFCF3F
:103A2000F60181916F018093F1002197FFEFAF1AAA
:103A3000BF0ACECFAF92BF92CF92DF92FF920F9389
:103A40001F93CF93DF936C01EB018A010E94791ED3
:103A5000F82E811123C00115110539F0F80180817C
:103A60009181C81BD90BC80ED91EB12CA12C20974F
:103A7000A9F08091E80085FD22C08091E8008B7755
:103A80008093E80001151105A1F0F8018081918172
:103A9000A80EB91EB182A08285E0F82E8F2DDF918D
:103AA000CF911F910F91FF90DF90CF90BF90AF907B
:103AB00008950E94791E8823D1F2F82EEFCF8091CD
:103AC000F100F60181936F012197FFEFAF1ABF0A52
:103AD000CECFFC0180912A0290912B028617970786
:103AE000A0F06115710529F49091E8009E779093FC
:103AF000E80090E06115710551F4911108C08091C2
:103B0000E80082FF34C080E00895BC01F2CF8091CC
:103B100023028823C1F18530C1F18091E80083FD43
:103B200030C08091E80082FDEACF8091E80080FFFC
:103B3000E1CF8091F3002091F200382F61157105DB
:103B400019F02830310558F091E02830310509F09E
:103B500090E02091E8002E772093E800CBCF819170
:103B60008093F100615071092F5F3F4FE7CF809143
:103B70002302882341F0853041F08091E80083FFE3
:103B8000BECF81E0089582E0089583E00895FC01AE
:103B900080912A0290912B0286179707A0F0611559
:103BA000710529F48091E8008E778093E80090E019
:103BB0006115710551F4911108C08091E80082FFF0
:103BC00035C080E00895BC01F2CF809123028823A4
:103BD000C9F18530C9F18091E80083FD31C0809141
:103BE000E80082FDEACF8091E80080FFE1CF80917C
:103BF000F3002091F200382F6115710519F028307B
:103C0000310558F091E02830310509F090E08091BD
:103C1000E8008E778093E800CBCF84918093F10009
:103C20003196615071092F5F3F4FE6CF809123029B
:103C3000882341F0853041F08091E80083FFBDCFBB
:103C400081E0089582E0089583E00895982F9730E9
:103C500028F08F708093E90081E008959093E90047
:103C6000242F762F50E0981731F07091EC002091BE
:103C7000ED005091F00021FD02C09F5FE8CF309130
:103C8000EB003E7F3093EB003091ED003D7F3093B1
:103C9000ED003091EB0031603093EB007093EC005D
:103CA0002093ED005093F0002091EE0027FDE5CF2A
:103CB00080E008958091240287FF13C08091E8007E
:103CC00082FF06C08091E8008B778093E80004C0F3
:103CD000809123028111F2CF0895809123028823DD
:103CE000D9F38091E80080FFF8CF8091E8008E77CB
:103CF000ECCF2091E4003091E50095E6A9012091F8
:103D0000EC00822F817020FF06C08091E80080FFC8
:103D100006C080E008952091E80022FD1AC080913D
:103D20002302882389F0853089F08091EB0085FD9E
:103D30000FC02091E4003091E50042175307F9F2DB
:103D40009150E1F684E0089582E0089583E00895BB
:103D500081E008950E94181F0E94201FE0EEF0E00D
:103D6000808181608083E8EDF0E080818F778083BF
:103D700019BCA7EDB0E08C918E7F8C9380818F7EF3
:103D800080831092220208950F931F93CF93DF93A5
:103D90000E94181F0E94201FC8EDD0E088818F77F5
:103DA000888388818068888388818F7D888319BC17
:103DB0001092230210921F021092210210922002F0
:103DC00000EE10E0F80180818B7F80838881816024
:103DD000888342E060E080E00E94261EE1EEF0E091
:103DE00080818E7F8083E2EEF0E08081816080833D
:103DF000808188608083F80180818E7F80838881C4
:103E000080618883DF91CF911F910F910895E8ED34
:103E1000F0E080818F7E8083E7EDF0E0808181603B
:103E2000808384E082BF81E0809322020C94C41ED0
:103E3000E8EDF0E080818E7F80831092E2000895AB
:103E40001092DA001092E10008951F920F920FB6BF
:103E50000F9211242F933F934F935F936F937F9310
:103E60008F939F93AF93BF93EF93FF938091E10064
:103E700082FF0BC08091E20082FF07C08091E100C9
:103E80008B7F8093E1000E948F218091DA0080FF78
:103E900019C08091D80080FF15C08091DA008E7F14
:103EA0008093DA008091D90080FF96C080E189BDBF
:103EB00082E189BD09B400FEFDCF81E08093230239
:103EC0000E94E41A8091E10080FF19C08091E20015
:103ED00080FF15C08091E2008E7F8093E200809188
:103EE000E20080618093E2008091D800806280933C
:103EF000D80019BC85E0809323020E94F71A8091B4
:103F0000E10084FF2BC08091E20084FF27C080E1A4
:103F100089BD82E189BD89B5982F917080FFFBCF63
:103F20008091D8008F7D8093D8008091E1008F7EB2
:103F30008093E1008091E2008F7E8093E200809187
:103F4000E20081608093E20080911F02882309F4DF
:103F500049C084E0809323020E94FF1A8091E1000F
:103F600083FF29C08091E20083FF25C08091E1009A
:103F7000877F8093E10082E08093230210921F02EA
:103F80008091E1008E7F8093E1008091E2008E7F3E
:103F90008093E2008091E20080618093E20042E041
:103FA00060E080E00E94261E8091F000886080938F
:103FB000F0000E94F51AFF91EF91BF91AF919F9190
:103FC0008F917F916F915F914F913F912F910F90C2
:103FD0000FBE0F901F90189519BC109223020E94DB
:103FE000F21A70CF8091E30087FD93E09093230253
:103FF000B3CF1F920F920FB60F9211242F933F93BE
:104000004F935F936F937F938F939F93AF93BF93E0
:10401000CF93DF93EF93FF93D091E900DF7080910E
:10402000EC00C82FC17080FDC0E81092E9008091BB
:10403000F000877F8093F00078940E943D201092DA
:10404000E9008091F00088608093F000CD2BCF7064
:10405000C093E900FF91EF91DF91CF91BF91AF91B4
:104060009F918F917F916F915F914F913F912F9190
:104070000F900FBE0F901F9018951F93CF93DF9353
:10408000CDB7DEB7AA970FB6F894DEBF0FBECDBF8F
:1040900084E292E02091F100FC012193CF01F2E053
:1040A0008C329F07B9F70E94271B8091E80083FF9D
:1040B0001EC180912402909125029A3008F017C108
:1040C000E92FF0E0E05BFD4D0C94BF21803899F0C2
:1040D000823809F00CC1809128028F70873008F077
:1040E00006C18093E9008091EB0085FB882780F969
:1040F0001092E90006C08091200290912102911156
:1041000082609091E800977F9093E8008093F1009F
:104110001092F1008091E8008E77E5C0882309F4C1
:10412000D3C0823009F0E3C0809126028111D6C04D
:10413000809128028F702FEF280F263008F0D7C00B
:104140008093E9002091EB0020FFC8C0933031F448
:104150008091EB0080628093EB00C0C09091EB00F7
:1041600090619093EB0021E030E001C0220F8A952E
:10417000EAF72093EA001092EA008091EB00886051
:10418000EACF8111B4C0109126021F778091E3001D
:104190008078812B8093E3008091E800877F809373
:1041A000E8000E945A1E8091E80080FFFCCF8091B9
:1041B000E30080688093E30082E0111183E0809344
:1041C000230295C08058823008F091C08091260269
:1041D000909127028C3D23E09207A1F583E08A832A
:1041E0008AE289834FB7F894DE01139620E03EE01F
:1041F00051E2E32FF0E050935700E49120FF03C019
:10420000E295EF703F5FEF708E2F90E0EA30C0F0E4
:10421000C7968D939D932F5F243159F74FBF80919F
:10422000E800877F8093E8006AE270E0CE010196A3
:104230000E94691D8091E8008B778093E80057C049
:10424000C096E7CF6091280270912902AE014F5FBE
:104250005F4F0E945C1CBC01892B09F448C09091FF
:10426000E800977F9093E80089819A810E94C71D9A
:10427000E1CF8038E1F58091E800877F8093E80006
:1042800080911F028093F10045CF811130C0909141
:104290002602923060F58091E800877F8093E800E5
:1042A00090931F020E945A1E80911F02882311F0D2
:1042B00084E005C08091E30087FDFACF81E0809320
:1042C00023020E94091B13C080912602813079F4D9
:1042D00081E0933009F080E0809321021092E900A0
:1042E0008091E800877F8093E8000E945A1E8091A9
:1042F000E80083FF0AC08091E800877F8093E80090
:104300008091EB0080628093EB00AA960FB6F89440
:10431000DEBF0FBECDBFDF91CF911F9108950895ED
:10432000CF93809123028823A1F0C091E900CF7040
:104330009091EC00892F817090FD80E8C82B10923D
:10434000E9008091E80083FD0E943D20CF70C0937A
:10435000E900CF91089597FB072E16F4009407D03B
:1043600077FD09D00E94CC2107FC05D03EF4909542
:1043700081959F4F0895709561957F4F0895EE0F39
:10438000FF1F0590F491E02D09946927962769276E
:104390007827872778270895AA1BBB1B51E107C000
:1043A000AA1FBB1FA617B70710F0A61BB70B881FC5
:1043B000991F5A95A9F780959095BC01CD01089554
:1043C000FB01DC0104C08D910190801921F4415062
:1043D0005040C8F7881B990B0895F999FECF92BDFC
:1043E00081BDF89A992780B50895A8E1B0E042E030
:1043F00050E00C942122262FF999FECF92BD81BD69
:10440000F89A019700B4021639F01FBA20BD0FB612
:10441000F894FA9AF99A0FBE08950396272F0E94EE
:10442000FC210E94FB21252F0E94FC21242F0C94AB
:10443000FC210196272F0E94FC210C94FB21DC011A
:10444000CB01FC01F999FECF06C0F2BDE1BDF89A9F
:10445000319600B40D9241505040B8F70895F89449
:10446000FFCF2205220553055305E6050206820506
:1044700082050D06740683068306391443146414FA
:1044800070147B148614891489148914891489146E
:104490008C1490149814A514B214B514B814C5143F
:1044A00066208E2077218E207721C120E22077217F
:0444B0003921452148
:1044B400C800D701280850011E0A1401361A5B1AD5
:1044C4003A1AB61AB21A391A01E200E900EA00B53A
:1044D40000B600B700CD008301CC008A019201949C
:1044E400012102230224022502260227022A02B302
:1044F40000B4006F007000818283E200E900EA00EA
:10450400B500B600B700CD008301CC008A0192014A
:1045140094012102230224022502260227022A02F0
:10452400B300B4006F007000818283F0F140227BFD
:0C453400A60209022B02AE01C701E7013C
:00000001FF
